{
  "contractName": "Charities",
  "abi": [
    {
      "constant": true,
      "inputs": [],
      "name": "owner",
      "outputs": [
        {
          "name": "",
          "type": "address"
        }
      ],
      "payable": false,
      "stateMutability": "view",
      "type": "function"
    },
    {
      "constant": true,
      "inputs": [],
      "name": "idGenerator",
      "outputs": [
        {
          "name": "",
          "type": "uint256"
        }
      ],
      "payable": false,
      "stateMutability": "view",
      "type": "function"
    },
    {
      "inputs": [],
      "payable": false,
      "stateMutability": "nonpayable",
      "type": "constructor"
    },
    {
      "anonymous": false,
      "inputs": [
        {
          "indexed": false,
          "name": "desc",
          "type": "string"
        },
        {
          "indexed": false,
          "name": "patron",
          "type": "address"
        },
        {
          "indexed": false,
          "name": "price",
          "type": "uint256"
        },
        {
          "indexed": false,
          "name": "serviceProvider",
          "type": "address"
        },
        {
          "indexed": false,
          "name": "closingBlock",
          "type": "uint256"
        },
        {
          "indexed": false,
          "name": "totalDonationsAvailable",
          "type": "uint256"
        },
        {
          "indexed": false,
          "name": "charityId",
          "type": "uint256"
        }
      ],
      "name": "LogCharityAdded",
      "type": "event"
    },
    {
      "anonymous": false,
      "inputs": [
        {
          "indexed": false,
          "name": "donator",
          "type": "address"
        },
        {
          "indexed": false,
          "name": "charityId",
          "type": "uint256"
        },
        {
          "indexed": false,
          "name": "donations",
          "type": "uint256"
        },
        {
          "indexed": false,
          "name": "msgvalue",
          "type": "uint256"
        }
      ],
      "name": "LogCharityDonated",
      "type": "event"
    },
    {
      "anonymous": false,
      "inputs": [
        {
          "indexed": false,
          "name": "accountRefunded",
          "type": "address"
        },
        {
          "indexed": false,
          "name": "eventId",
          "type": "uint256"
        },
        {
          "indexed": false,
          "name": "donations",
          "type": "uint256"
        }
      ],
      "name": "LogCharityRefunded",
      "type": "event"
    },
    {
      "anonymous": false,
      "inputs": [
        {
          "indexed": false,
          "name": "serviceProvider",
          "type": "address"
        },
        {
          "indexed": false,
          "name": "balance",
          "type": "uint256"
        },
        {
          "indexed": false,
          "name": "eventId",
          "type": "uint256"
        }
      ],
      "name": "LogEndCharity",
      "type": "event"
    },
    {
      "anonymous": false,
      "inputs": [
        {
          "indexed": false,
          "name": "charityId",
          "type": "uint256"
        },
        {
          "indexed": false,
          "name": "donations",
          "type": "uint256"
        }
      ],
      "name": "LogDonationConsumed",
      "type": "event"
    },
    {
      "constant": false,
      "inputs": [
        {
          "name": "_description",
          "type": "string"
        },
        {
          "name": "_patron",
          "type": "address"
        },
        {
          "name": "_totalDonations",
          "type": "uint256"
        },
        {
          "name": "_price",
          "type": "uint256"
        },
        {
          "name": "_serviceProvider",
          "type": "address"
        },
        {
          "name": "_closingBlock",
          "type": "uint256"
        }
      ],
      "name": "addCharity",
      "outputs": [
        {
          "name": "charityID",
          "type": "uint256"
        }
      ],
      "payable": true,
      "stateMutability": "payable",
      "type": "function"
    },
    {
      "constant": true,
      "inputs": [
        {
          "name": "charityID",
          "type": "uint256"
        }
      ],
      "name": "readCharity",
      "outputs": [
        {
          "name": "description",
          "type": "string"
        },
        {
          "name": "totalDonations",
          "type": "uint256"
        },
        {
          "name": "soldDonations",
          "type": "uint256"
        },
        {
          "name": "consumedDonations",
          "type": "uint256"
        },
        {
          "name": "serviceProvider",
          "type": "address"
        },
        {
          "name": "closingBlock",
          "type": "uint256"
        },
        {
          "name": "isOpen",
          "type": "bool"
        }
      ],
      "payable": false,
      "stateMutability": "view",
      "type": "function"
    },
    {
      "constant": false,
      "inputs": [
        {
          "name": "charityID",
          "type": "uint256"
        },
        {
          "name": "nrOfDonations",
          "type": "uint256"
        }
      ],
      "name": "donateToCharity",
      "outputs": [],
      "payable": true,
      "stateMutability": "payable",
      "type": "function"
    },
    {
      "constant": false,
      "inputs": [
        {
          "name": "charityID",
          "type": "uint256"
        }
      ],
      "name": "getRefund",
      "outputs": [],
      "payable": true,
      "stateMutability": "payable",
      "type": "function"
    },
    {
      "constant": true,
      "inputs": [
        {
          "name": "charityID",
          "type": "uint256"
        }
      ],
      "name": "getDonationNumberForDonator",
      "outputs": [
        {
          "name": "donatedCharities",
          "type": "uint256"
        }
      ],
      "payable": false,
      "stateMutability": "view",
      "type": "function"
    },
    {
      "constant": false,
      "inputs": [
        {
          "name": "charityID",
          "type": "uint256"
        },
        {
          "name": "donations",
          "type": "uint256"
        }
      ],
      "name": "consumeDonation",
      "outputs": [],
      "payable": false,
      "stateMutability": "nonpayable",
      "type": "function"
    },
    {
      "constant": false,
      "inputs": [
        {
          "name": "charityID",
          "type": "uint256"
        }
      ],
      "name": "closeCharity",
      "outputs": [],
      "payable": true,
      "stateMutability": "payable",
      "type": "function"
    }
  ],
  "bytecode": "0x608060405234801561001057600080fd5b50336000806101000a81548173ffffffffffffffffffffffffffffffffffffffff021916908373ffffffffffffffffffffffffffffffffffffffff160217905550611714806100606000396000f3fe6080604052600436106100865760003560e01c80637c296059116100595780637c2960591461035a5780638da5cb5b14610392578063d2f0be99146103e9578063ddf8a8a614610417578063e7bd92b91461044557610086565b80631a510ad11461008b5780633255dd46146101b857806362c267b1146101fd5780636bc82f961461024c575b600080fd5b6101a2600480360360c08110156100a157600080fd5b81019080803590602001906401000000008111156100be57600080fd5b8201836020820111156100d057600080fd5b803590602001918460018302840111640100000000831117156100f257600080fd5b91908080601f016020809104026020016040519081016040528093929190818152602001838380828437600081840152601f19601f820116905080830192505050505050509192919290803573ffffffffffffffffffffffffffffffffffffffff1690602001909291908035906020019092919080359060200190929190803573ffffffffffffffffffffffffffffffffffffffff16906020019092919080359060200190929190505050610470565b6040518082815260200191505060405180910390f35b3480156101c457600080fd5b506101fb600480360360408110156101db57600080fd5b810190808035906020019092919080359060200190929190505050610801565b005b34801561020957600080fd5b506102366004803603602081101561022057600080fd5b8101908080359060200190929190505050610961565b6040518082815260200191505060405180910390f35b34801561025857600080fd5b506102856004803603602081101561026f57600080fd5b8101908080359060200190929190505050610a1d565b60405180806020018881526020018781526020018681526020018573ffffffffffffffffffffffffffffffffffffffff1673ffffffffffffffffffffffffffffffffffffffff16815260200184815260200183151515158152602001828103825289818151815260200191508051906020019080838360005b838110156103195780820151818401526020810190506102fe565b50505050905090810190601f1680156103465780820380516001836020036101000a031916815260200191505b509850505050505050505060405180910390f35b6103906004803603604081101561037057600080fd5b810190808035906020019092919080359060200190929190505050610bad565b005b34801561039e57600080fd5b506103a7610e3d565b604051808273ffffffffffffffffffffffffffffffffffffffff1673ffffffffffffffffffffffffffffffffffffffff16815260200191505060405180910390f35b610415600480360360208110156103ff57600080fd5b8101908080359060200190929190505050610e62565b005b6104436004803603602081101561042d57600080fd5b810190808035906020019092919050505061122e565b005b34801561045157600080fd5b5061045a611485565b6040518082815260200191505060405180910390f35b60008060009054906101000a900473ffffffffffffffffffffffffffffffffffffffff1673ffffffffffffffffffffffffffffffffffffffff163373ffffffffffffffffffffffffffffffffffffffff16146104cb57600080fd5b6000851180156105085750600073ffffffffffffffffffffffffffffffffffffffff168373ffffffffffffffffffffffffffffffffffffffff1614155b80156105145750600084115b61051d57600080fd5b866002600060015481526020019081526020016000206000019080519060200190610549929190611622565b508560026000600154815260200190815260200160002060060160006101000a81548173ffffffffffffffffffffffffffffffffffffffff021916908373ffffffffffffffffffffffffffffffffffffffff160217905550846002600060015481526020019081526020016000206001018190555083600260006001548152602001908152602001600020600501819055508260026000600154815260200190815260200160002060070160006101000a81548173ffffffffffffffffffffffffffffffffffffffff021916908373ffffffffffffffffffffffffffffffffffffffff16021790555081600260006001548152602001908152602001600020600801819055506001600260006001548152602001908152602001600020600a0160016101000a81548160ff0219169083151502179055506001600260006001548152602001908152602001600020600a0160006101000a81548160ff021916908360028111156106b557fe5b02179055507f6eb7b831f9a6a163101e8adfd07b9c9059c44be14713417d8c7470567703d74887878686868a60015460405180806020018873ffffffffffffffffffffffffffffffffffffffff1673ffffffffffffffffffffffffffffffffffffffff1681526020018781526020018673ffffffffffffffffffffffffffffffffffffffff1673ffffffffffffffffffffffffffffffffffffffff168152602001858152602001848152602001838152602001828103825289818151815260200191508051906020019080838360005b838110156107a0578082015181840152602081019050610785565b50505050905090810190601f1680156107cd5780820380516001836020036101000a031916815260200191505b509850505050505050505060405180910390a160018060008282540192505081905550600180540390509695505050505050565b6000809054906101000a900473ffffffffffffffffffffffffffffffffffffffff1673ffffffffffffffffffffffffffffffffffffffff163373ffffffffffffffffffffffffffffffffffffffff161461085a57600080fd5b6001600281111561086757fe5b60026000848152602001908152602001600020600a0160009054906101000a900460ff16600281111561089657fe5b146108a057600080fd5b600081600260008581526020019081526020016000206003015460026000868152602001908152602001600020600201540303905060008112156108e357600080fd5b61090360026000858152602001908152602001600020600301548361148b565b60026000858152602001908152602001600020600301819055507fd407f7195c15041f1e5ea0752481fc052aee8b147ed7d96dfc12880f512f48258383604051808381526020018281526020019250505060405180910390a1505050565b6000806002600084815260200190815260200160002060090160003373ffffffffffffffffffffffffffffffffffffffff1673ffffffffffffffffffffffffffffffffffffffff16815260200190815260200160002054116109c257600080fd5b6002600083815260200190815260200160002060090160003373ffffffffffffffffffffffffffffffffffffffff1673ffffffffffffffffffffffffffffffffffffffff168152602001908152602001600020549050919050565b606060008060008060008060026000898152602001908152602001600020600001600260008a815260200190815260200160002060010154600260008b815260200190815260200160002060020154600260008c815260200190815260200160002060030154600260008d815260200190815260200160002060070160009054906101000a900473ffffffffffffffffffffffffffffffffffffffff16600260008e815260200190815260200160002060080154600260008f8152602001908152602001600020600a0160019054906101000a900460ff16868054600181600116156101000203166002900480601f016020809104026020016040519081016040528092919081815260200182805460018160011615610100020316600290048015610b8a5780601f10610b5f57610100808354040283529160200191610b8a565b820191906000526020600020905b815481529060010190602001808311610b6d57829003601f168201915b505050505096508292509650965096509650965096509650919395979092949650565b60008111610bba57600080fd5b6001151560026000848152602001908152602001600020600a0160019054906101000a900460ff16151514610bee57600080fd5b610c0e816002600085815260200190815260200160002060050154611513565b341015610c1a57600080fd5b8060026000848152602001908152602001600020600201546002600085815260200190815260200160002060010154031015610c5557600080fd5b610cb26002600084815260200190815260200160002060090160003373ffffffffffffffffffffffffffffffffffffffff1673ffffffffffffffffffffffffffffffffffffffff168152602001908152602001600020548261148b565b6002600084815260200190815260200160002060090160003373ffffffffffffffffffffffffffffffffffffffff1673ffffffffffffffffffffffffffffffffffffffff16815260200190815260200160002081905550610d2960026000848152602001908152602001600020600201548261148b565b60026000848152602001908152602001600020600201819055506000610d65826002600086815260200190815260200160002060050154611513565b90506000610d733483611599565b90503373ffffffffffffffffffffffffffffffffffffffff166108fc829081150290604051600060405180830381858888f19350505050158015610dbb573d6000803e3d6000fd5b507f56d51a0b6649d6edcadbf20dd99bbfa2b2fa5de27a84355fd1efa274f270a76e33858534604051808573ffffffffffffffffffffffffffffffffffffffff1673ffffffffffffffffffffffffffffffffffffffff16815260200184815260200183815260200182815260200194505050505060405180910390a150505050565b6000809054906101000a900473ffffffffffffffffffffffffffffffffffffffff1681565b600280811115610e6e57fe5b60026000838152602001908152602001600020600a0160009054906101000a900460ff166002811115610e9d57fe5b14610ea757600080fd5b60006002600083815260200190815260200160002060090160003373ffffffffffffffffffffffffffffffffffffffff1673ffffffffffffffffffffffffffffffffffffffff1681526020019081526020016000205411610f0757600080fd5b60006002600083815260200190815260200160002060040154600260008481526020019081526020016000206003015460026000858152602001908152602001600020600101540303905060008113610f5f57600080fd5b60006002600084815260200190815260200160002060090160003373ffffffffffffffffffffffffffffffffffffffff1673ffffffffffffffffffffffffffffffffffffffff168152602001908152602001600020549050600061100e610ff260026000878152602001908152602001600020600101546002600088815260200190815260200160002060030154611599565b6002600087815260200190815260200160002060040154611599565b905060008183111561102257819050611026565b8290505b611046600260008781526020019081526020016000206002015482611599565b60026000878152602001908152602001600020600201819055506110bd6002600087815260200190815260200160002060090160003373ffffffffffffffffffffffffffffffffffffffff1673ffffffffffffffffffffffffffffffffffffffff1681526020019081526020016000205482611599565b6002600087815260200190815260200160002060090160003373ffffffffffffffffffffffffffffffffffffffff1673ffffffffffffffffffffffffffffffffffffffff1681526020019081526020016000208190555061113460026000878152602001908152602001600020600401548261148b565b60026000878152602001908152602001600020600401819055503373ffffffffffffffffffffffffffffffffffffffff166108fc61118883600260008a815260200190815260200160002060050154611513565b9081150290604051600060405180830381858888f193505050501580156111b3573d6000803e3d6000fd5b507fbd8406848631cb6df1fd3226f67adb666f70a93318502798ba848be738d2b848338683604051808473ffffffffffffffffffffffffffffffffffffffff1673ffffffffffffffffffffffffffffffffffffffff168152602001838152602001828152602001935050505060405180910390a15050505050565b6000809054906101000a900473ffffffffffffffffffffffffffffffffffffffff1673ffffffffffffffffffffffffffffffffffffffff163373ffffffffffffffffffffffffffffffffffffffff161461128757600080fd5b6001151560026000838152602001908152602001600020600a0160019054906101000a900460ff161515146112bb57600080fd5b600060026000838152602001908152602001600020600a0160016101000a81548160ff0219169083151502179055506002806000838152602001908152602001600020600a0160006101000a81548160ff0219169083600281111561131c57fe5b0217905550600061135960026000848152602001908152602001600020600301546002600085815260200190815260200160002060050154611513565b90506002600083815260200190815260200160002060070160009054906101000a900473ffffffffffffffffffffffffffffffffffffffff1673ffffffffffffffffffffffffffffffffffffffff166108fc829081150290604051600060405180830381858888f193505050501580156113d7573d6000803e3d6000fd5b507fec1715928c04d2a37117b8a85ca08e81a415a8d31fbccdb8500786c0b20b271a6002600084815260200190815260200160002060070160009054906101000a900473ffffffffffffffffffffffffffffffffffffffff168284604051808473ffffffffffffffffffffffffffffffffffffffff1673ffffffffffffffffffffffffffffffffffffffff168152602001838152602001828152602001935050505060405180910390a15050565b60015481565b600080828401905083811015611509576040517f08c379a000000000000000000000000000000000000000000000000000000000815260040180806020018281038252601b8152602001807f536166654d6174683a206164646974696f6e206f766572666c6f77000000000081525060200191505060405180910390fd5b8091505092915050565b6000808314156115265760009050611593565b600082840290508284828161153757fe5b041461158e576040517f08c379a00000000000000000000000000000000000000000000000000000000081526004018080602001828103825260218152602001806116c86021913960400191505060405180910390fd5b809150505b92915050565b600082821115611611576040517f08c379a000000000000000000000000000000000000000000000000000000000815260040180806020018281038252601e8152602001807f536166654d6174683a207375627472616374696f6e206f766572666c6f77000081525060200191505060405180910390fd5b600082840390508091505092915050565b828054600181600116156101000203166002900490600052602060002090601f016020900481019282601f1061166357805160ff1916838001178555611691565b82800160010185558215611691579182015b82811115611690578251825591602001919060010190611675565b5b50905061169e91906116a2565b5090565b6116c491905b808211156116c05760008160009055506001016116a8565b5090565b9056fe536166654d6174683a206d756c7469706c69636174696f6e206f766572666c6f77a165627a7a72305820f6985ce536e1045c5895bf4c3b700af2c5324bfae43a2d0838a731bbc555cd440029",
  "source": "pragma solidity ^0.5.0;\r\n\r\nimport \"openzeppelin-solidity/contracts/math/SafeMath.sol\";\r\n\r\n\r\n/** @title The Charities contract keeps track of the charities.\r\n  * @dev using SafeMath ( uint256) for under/overflow protection\r\n*/\r\ncontract Charities {\r\n    using SafeMath for uint256;\r\n    /*\r\n      Public owner variable which is set to the creator of the contract when it is initialized.\r\n    */\r\n    address public owner ;\r\n\r\n    /*\r\n      A charity has 3 states:\r\n      Pending = during creation\r\n      Active = after a charity is added\r\n      Finished = finished if closed, and if the some of the donations cannot be consumed we can refund the donation.\r\n    */\r\n    enum CharityStatus  {Pending, Active, Finished}\r\n\r\n    /*\r\n        The variable to keep track of the charity ID numbers.\r\n    */\r\n    uint256 public idGenerator;\r\n\r\n    /*\r\n        Charity struct, which has 10 fields.\r\n        The \"patron\" is the NGO which is observing the charity.\r\n        The \"serviceProvider\" is the beneficiary serving the charityItems.\r\n        The \"closingBlock\" defines the end of donations accepted (not implemented yet)\r\n        The \"donators\" keeps track of addresses and how many of the open donations each donator has purchased.\r\n    */\r\n    struct Charity {\r\n        string description;\r\n        uint256 totalDonations;\r\n        uint256 soldDonations;\r\n        uint256 consumedDonations;\r\n        uint256 refundedDonations;\r\n        uint256 price;\r\n        address patron;\r\n        address payable serviceProvider;\r\n        uint256 closingBlock;\r\n        mapping (address => uint256) donators;\r\n        CharityStatus status;\r\n        bool isOpen;\r\n    }\r\n\r\n    /*\r\n        This mapping keeps track of all charities.\r\n    */\r\n    mapping (uint256 => Charity) charities;\r\n\r\n    event LogCharityAdded(string desc, address patron, uint256 price, address serviceProvider, uint256 closingBlock, uint256 totalDonationsAvailable, uint256 charityId);\r\n    event LogCharityDonated(address donator, uint256 charityId, uint256 donations, uint256 msgvalue);\r\n    event LogCharityRefunded(address accountRefunded, uint256 eventId, uint256 donations);\r\n    event LogEndCharity(address serviceProvider, uint256 balance, uint256 eventId);\r\n    event LogDonationConsumed(uint256 charityId, uint256 donations);\r\n\r\n\r\n    constructor() public {\r\n        owner= msg.sender;\r\n    }\r\n\r\n    /*\r\n        A modifier that throws an error if the msg.sender is not the owner.\r\n    */\r\n    modifier isMsgSenderOwner() {\r\n      require(msg.sender == owner);\r\n      _;\r\n    }\r\n\r\n    /** @dev Adds a new charity to the contract.\r\n      * @param _description description of the charity\r\n      * @param _patron a patron for the charity (logic not implemented yet)\r\n      * @param _totalDonations number of available donations for this charity\r\n      * @param _price price in wei for each charity item\r\n      * @param _serviceProvider the service provider which serves the charity item (and gets paid for served items)\r\n      * @param _closingBlock closing block for the donation (logic not implemented yet)\r\n      * @return charityID\r\n    */\r\n    function addCharity(string memory _description, address _patron, uint256 _totalDonations, uint256 _price, address payable _serviceProvider, uint256 _closingBlock) public payable isMsgSenderOwner() returns (uint256 charityID)  {\r\n      require( _totalDonations > 0 && _serviceProvider != 0x0000000000000000000000000000000000000000 && _price > 0 );\r\n      charities[idGenerator].description = _description;\r\n      charities[idGenerator].patron = _patron;\r\n      charities[idGenerator].totalDonations = _totalDonations;\r\n      charities[idGenerator].price = _price;\r\n      charities[idGenerator].serviceProvider = _serviceProvider;\r\n      charities[idGenerator].closingBlock = _closingBlock;\r\n      charities[idGenerator].isOpen = true;\r\n      charities[idGenerator].status = CharityStatus.Active;\r\n      emit LogCharityAdded(_description, _patron, _price, _serviceProvider, _closingBlock, _totalDonations, idGenerator);\r\n      idGenerator +=1;\r\n      return idGenerator-1;\r\n    }\r\n\r\n    /** @dev Returns charity members values with the given charityID.\r\n      * @param charityID ID of the charity to read\r\n      * @return description description of the charity\r\n      * @return totalDonations number of available donations for this charity\r\n      * @return soldDonations number of sold donations for this charity\r\n      * @return consumedDonations number of consumed donations for this charity\r\n      * @return serviceProvider he service provider which serves the charity item (and gets paid for served items)\r\n      * @return closingBlock  closing block for the donation (logic not implemented yet)\r\n      * @return isOpen status variable\r\n    */\r\n    function readCharity(uint256 charityID) public view\r\n        returns(string memory description, uint256 totalDonations, uint256 soldDonations, uint256 consumedDonations, address serviceProvider, uint256 closingBlock, bool isOpen) {\r\n            return(charities[charityID].description, charities[charityID].totalDonations, charities[charityID].soldDonations, charities[charityID].consumedDonations , charities[charityID].serviceProvider, charities[charityID].closingBlock, charities[charityID].isOpen);\r\n\r\n    }\r\n\r\n    /** @dev This function allows users to donate to a specific charity with given id.\r\n      * @param charityID ID of the charity to read\r\n      * @param nrOfDonations how many of the donation should be buyed\r\n    */\r\n    function donateToCharity(uint256 charityID, uint256 nrOfDonations) public payable {\r\n        require(nrOfDonations > 0);\r\n        require(charities[charityID].isOpen == true);\r\n        require(msg.value >= SafeMath.mul(nrOfDonations, charities[charityID].price) );\r\n        require(charities[charityID].totalDonations-charities[charityID].soldDonations >= nrOfDonations);\r\n        charities[charityID].donators[msg.sender] = SafeMath.add(charities[charityID].donators[msg.sender],nrOfDonations);\r\n        charities[charityID].soldDonations = SafeMath.add(charities[charityID].soldDonations,nrOfDonations);\r\n        uint256 totalPrice = SafeMath.mul(nrOfDonations , charities[charityID].price);\r\n        uint256 change =  SafeMath.sub(msg.value , totalPrice);\r\n        msg.sender.transfer(change);\r\n        emit LogCharityDonated(msg.sender, charityID, nrOfDonations, msg.value);\r\n    }\r\n\r\n    /** @dev This function allows users to request a refund for a specific charity. There are check to see if there are refunds available.\r\n      * @param charityID ID of the charity to read\r\n    */\r\n    function getRefund(uint256 charityID) public payable {\r\n        require(charities[charityID].status == CharityStatus.Finished);\r\n        require(charities[charityID].donators[msg.sender] > 0);\r\n        int refundable = int(charities[charityID].totalDonations - charities[charityID].consumedDonations - charities[charityID].refundedDonations);\r\n        require(refundable > 0);\r\n        uint256 senderRefundableDonations = charities[charityID].donators[msg.sender];\r\n        uint256 totalRefundableDonations = SafeMath.sub(SafeMath.sub(charities[charityID].totalDonations , charities[charityID].consumedDonations), charities[charityID].refundedDonations) ;\r\n        uint256 calculatedRefundableDonations;\r\n        if(senderRefundableDonations > totalRefundableDonations) {\r\n          calculatedRefundableDonations = totalRefundableDonations;\r\n        } else {\r\n          calculatedRefundableDonations = senderRefundableDonations;\r\n        }\r\n\r\n        charities[charityID].soldDonations = SafeMath.sub(charities[charityID].soldDonations,calculatedRefundableDonations);\r\n        charities[charityID].donators[msg.sender]= SafeMath.sub(charities[charityID].donators[msg.sender],calculatedRefundableDonations);\r\n        charities[charityID].refundedDonations = SafeMath.add(charities[charityID].refundedDonations,calculatedRefundableDonations);\r\n        msg.sender.transfer(SafeMath.mul(calculatedRefundableDonations, charities[charityID].price));\r\n        emit LogCharityRefunded(msg.sender, charityID, calculatedRefundableDonations);\r\n    }\r\n\r\n\r\n    /** @dev This function allows to get the nr of donations for a given charityID for the msg sender\r\n      * @param charityID ID of the charity\r\n    */\r\n    function getDonationNumberForDonator(uint256 charityID) public view\r\n        returns(uint256 donatedCharities) {\r\n            require(charities[charityID].donators[msg.sender] > 0);\r\n            return (charities[charityID].donators[msg.sender]);\r\n    }\r\n\r\n    /** @dev Represents a confirmation of a consumation. Only the contract owner can call this function.\r\n      * @param charityID ID of the charity\r\n      * @param donations number of consumed donations\r\n    */\r\n    function consumeDonation(uint256 charityID, uint256 donations) public isMsgSenderOwner {\r\n      require(charities[charityID].status == CharityStatus.Active);\r\n      int balance = int(charities[charityID].soldDonations - charities[charityID].consumedDonations - donations);\r\n      require(balance >= 0);\r\n      charities[charityID].consumedDonations = SafeMath.add(charities[charityID].consumedDonations, donations);\r\n      emit LogDonationConsumed(charityID, donations);\r\n    }\r\n\r\n    /** @dev Represents a closing of a charity. Only the contract owner can call this function.\r\n      * @param charityID ID of the charity\r\n    */\r\n    function closeCharity(uint256 charityID) public payable isMsgSenderOwner {\r\n        require(charities[charityID].isOpen == true);\r\n        charities[charityID].isOpen = false;\r\n        charities[charityID].status = CharityStatus.Finished;\r\n\r\n        uint256 balance = SafeMath.mul(charities[charityID].consumedDonations, charities[charityID].price);\r\n        charities[charityID].serviceProvider.transfer(balance);\r\n        emit LogEndCharity(charities[charityID].serviceProvider, balance, charityID);\r\n    }\r\n\r\n\r\n}\r\n",
  "sourcePath": "C:/Users/sbr/Desktop/consensys/charities/contracts/Charities.sol",
  "compiler": {
    "name": "solc",
    "version": "0.5.8+commit.23d335f2.Emscripten.clang"
  },
  "schemaVersion": "3.0.11",
  "updatedAt": "2019-07-31T12:47:17.891Z",
  "devdoc": {
    "details": "using SafeMath ( uint256) for under/overflow protection\r",
    "methods": {
      "addCharity(string,address,uint256,uint256,address,uint256)": {
        "details": "Adds a new charity to the contract.\r",
        "params": {
          "_closingBlock": "closing block for the donation (logic not implemented yet)\r",
          "_description": "description of the charity\r",
          "_patron": "a patron for the charity (logic not implemented yet)\r",
          "_price": "price in wei for each charity item\r",
          "_serviceProvider": "the service provider which serves the charity item (and gets paid for served items)\r",
          "_totalDonations": "number of available donations for this charity\r"
        },
        "return": "charityID\r"
      },
      "closeCharity(uint256)": {
        "details": "Represents a closing of a charity. Only the contract owner can call this function.\r",
        "params": {
          "charityID": "ID of the charity\r"
        }
      },
      "consumeDonation(uint256,uint256)": {
        "details": "Represents a confirmation of a consumation. Only the contract owner can call this function.\r",
        "params": {
          "charityID": "ID of the charity\r",
          "donations": "number of consumed donations\r"
        }
      },
      "donateToCharity(uint256,uint256)": {
        "details": "This function allows users to donate to a specific charity with given id.\r",
        "params": {
          "charityID": "ID of the charity to read\r",
          "nrOfDonations": "how many of the donation should be buyed\r"
        }
      },
      "getDonationNumberForDonator(uint256)": {
        "details": "This function allows to get the nr of donations for a given charityID for the msg sender\r",
        "params": {
          "charityID": "ID of the charity\r"
        }
      },
      "getRefund(uint256)": {
        "details": "This function allows users to request a refund for a specific charity. There are check to see if there are refunds available.\r",
        "params": {
          "charityID": "ID of the charity to read\r"
        }
      },
      "readCharity(uint256)": {
        "details": "Returns charity members values with the given charityID.\r",
        "params": {
          "charityID": "ID of the charity to read\r"
        },
        "return": "description description of the charity\rtotalDonations number of available donations for this charity\rsoldDonations number of sold donations for this charity\rconsumedDonations number of consumed donations for this charity\rserviceProvider he service provider which serves the charity item (and gets paid for served items)\rclosingBlock  closing block for the donation (logic not implemented yet)\risOpen status variable\r"
      }
    },
    "title": "The Charities contract keeps track of the charities.\r"
  },
  "userdoc": {
    "methods": {}
  }
}