{
  "contractName": "Charities",
  "abi": [
    {
      "constant": true,
      "inputs": [],
      "name": "owner",
      "outputs": [
        {
          "name": "",
          "type": "address"
        }
      ],
      "payable": false,
      "stateMutability": "view",
      "type": "function"
    },
    {
      "constant": true,
      "inputs": [],
      "name": "idGenerator",
      "outputs": [
        {
          "name": "",
          "type": "uint256"
        }
      ],
      "payable": false,
      "stateMutability": "view",
      "type": "function"
    },
    {
      "inputs": [],
      "payable": false,
      "stateMutability": "nonpayable",
      "type": "constructor"
    },
    {
      "anonymous": false,
      "inputs": [
        {
          "indexed": false,
          "name": "desc",
          "type": "string"
        },
        {
          "indexed": false,
          "name": "patron",
          "type": "address"
        },
        {
          "indexed": false,
          "name": "price",
          "type": "uint256"
        },
        {
          "indexed": false,
          "name": "serviceProvider",
          "type": "address"
        },
        {
          "indexed": false,
          "name": "closingBlock",
          "type": "uint256"
        },
        {
          "indexed": false,
          "name": "totalDonationsAvailable",
          "type": "uint256"
        },
        {
          "indexed": false,
          "name": "charityId",
          "type": "uint256"
        }
      ],
      "name": "LogCharityAdded",
      "type": "event"
    },
    {
      "anonymous": false,
      "inputs": [
        {
          "indexed": false,
          "name": "donator",
          "type": "address"
        },
        {
          "indexed": false,
          "name": "charityId",
          "type": "uint256"
        },
        {
          "indexed": false,
          "name": "donations",
          "type": "uint256"
        },
        {
          "indexed": false,
          "name": "msgvalue",
          "type": "uint256"
        }
      ],
      "name": "LogCharityDonated",
      "type": "event"
    },
    {
      "anonymous": false,
      "inputs": [
        {
          "indexed": false,
          "name": "accountRefunded",
          "type": "address"
        },
        {
          "indexed": false,
          "name": "eventId",
          "type": "uint256"
        },
        {
          "indexed": false,
          "name": "donations",
          "type": "uint256"
        }
      ],
      "name": "LogCharityRefunded",
      "type": "event"
    },
    {
      "anonymous": false,
      "inputs": [
        {
          "indexed": false,
          "name": "serviceProvider",
          "type": "address"
        },
        {
          "indexed": false,
          "name": "balance",
          "type": "uint256"
        },
        {
          "indexed": false,
          "name": "eventId",
          "type": "uint256"
        }
      ],
      "name": "LogEndCharity",
      "type": "event"
    },
    {
      "anonymous": false,
      "inputs": [
        {
          "indexed": false,
          "name": "charityId",
          "type": "uint256"
        },
        {
          "indexed": false,
          "name": "donations",
          "type": "uint256"
        }
      ],
      "name": "LogDonationConsumed",
      "type": "event"
    },
    {
      "constant": false,
      "inputs": [
        {
          "name": "_description",
          "type": "string"
        },
        {
          "name": "_patron",
          "type": "address"
        },
        {
          "name": "_totalDonations",
          "type": "uint256"
        },
        {
          "name": "_price",
          "type": "uint256"
        },
        {
          "name": "_serviceProvider",
          "type": "address"
        },
        {
          "name": "_closingBlock",
          "type": "uint256"
        }
      ],
      "name": "addCharity",
      "outputs": [
        {
          "name": "charityID",
          "type": "uint256"
        }
      ],
      "payable": true,
      "stateMutability": "payable",
      "type": "function"
    },
    {
      "constant": true,
      "inputs": [
        {
          "name": "charityID",
          "type": "uint256"
        }
      ],
      "name": "readCharity",
      "outputs": [
        {
          "name": "description",
          "type": "string"
        },
        {
          "name": "totalDonations",
          "type": "uint256"
        },
        {
          "name": "soldDonations",
          "type": "uint256"
        },
        {
          "name": "consumedDonations",
          "type": "uint256"
        },
        {
          "name": "serviceProvider",
          "type": "address"
        },
        {
          "name": "closingBlock",
          "type": "uint256"
        },
        {
          "name": "isOpen",
          "type": "bool"
        }
      ],
      "payable": false,
      "stateMutability": "view",
      "type": "function"
    },
    {
      "constant": false,
      "inputs": [
        {
          "name": "charityID",
          "type": "uint256"
        },
        {
          "name": "nrOfDonations",
          "type": "uint256"
        }
      ],
      "name": "donateToCharity",
      "outputs": [],
      "payable": true,
      "stateMutability": "payable",
      "type": "function"
    },
    {
      "constant": false,
      "inputs": [
        {
          "name": "charityID",
          "type": "uint256"
        }
      ],
      "name": "getRefund",
      "outputs": [],
      "payable": true,
      "stateMutability": "payable",
      "type": "function"
    },
    {
      "constant": true,
      "inputs": [
        {
          "name": "charityID",
          "type": "uint256"
        }
      ],
      "name": "getDonationNumberForDonator",
      "outputs": [
        {
          "name": "donatedCharities",
          "type": "uint256"
        }
      ],
      "payable": false,
      "stateMutability": "view",
      "type": "function"
    },
    {
      "constant": false,
      "inputs": [
        {
          "name": "charityID",
          "type": "uint256"
        },
        {
          "name": "donations",
          "type": "uint256"
        }
      ],
      "name": "consumeDonation",
      "outputs": [],
      "payable": false,
      "stateMutability": "nonpayable",
      "type": "function"
    },
    {
      "constant": false,
      "inputs": [
        {
          "name": "charityID",
          "type": "uint256"
        }
      ],
      "name": "closeCharity",
      "outputs": [],
      "payable": true,
      "stateMutability": "payable",
      "type": "function"
    }
  ],
  "bytecode": "0x608060405234801561001057600080fd5b50336000806101000a81548173ffffffffffffffffffffffffffffffffffffffff021916908373ffffffffffffffffffffffffffffffffffffffff160217905550611296806100606000396000f3fe6080604052600436106100865760003560e01c80637c296059116100595780637c2960591461035a5780638da5cb5b14610392578063d2f0be99146103e9578063ddf8a8a614610417578063e7bd92b91461044557610086565b80631a510ad11461008b5780633255dd46146101b857806362c267b1146101fd5780636bc82f961461024c575b600080fd5b6101a2600480360360c08110156100a157600080fd5b81019080803590602001906401000000008111156100be57600080fd5b8201836020820111156100d057600080fd5b803590602001918460018302840111640100000000831117156100f257600080fd5b91908080601f016020809104026020016040519081016040528093929190818152602001838380828437600081840152601f19601f820116905080830192505050505050509192919290803573ffffffffffffffffffffffffffffffffffffffff1690602001909291908035906020019092919080359060200190929190803573ffffffffffffffffffffffffffffffffffffffff16906020019092919080359060200190929190505050610470565b6040518082815260200191505060405180910390f35b3480156101c457600080fd5b506101fb600480360360408110156101db57600080fd5b8101908080359060200190929190803590602001909291905050506107af565b005b34801561020957600080fd5b506102366004803603602081101561022057600080fd5b81019080803590602001909291905050506108f3565b6040518082815260200191505060405180910390f35b34801561025857600080fd5b506102856004803603602081101561026f57600080fd5b8101908080359060200190929190505050610950565b60405180806020018881526020018781526020018681526020018573ffffffffffffffffffffffffffffffffffffffff1673ffffffffffffffffffffffffffffffffffffffff16815260200184815260200183151515158152602001828103825289818151815260200191508051906020019080838360005b838110156103195780820151818401526020810190506102fe565b50505050905090810190601f1680156103465780820380516001836020036101000a031916815260200191505b509850505050505050505060405180910390f35b6103906004803603604081101561037057600080fd5b810190808035906020019092919080359060200190929190505050610ae0565b005b34801561039e57600080fd5b506103a7610ce5565b604051808273ffffffffffffffffffffffffffffffffffffffff1673ffffffffffffffffffffffffffffffffffffffff16815260200191505060405180910390f35b610415600480360360208110156103ff57600080fd5b8101908080359060200190929190505050610d0a565b005b6104436004803603602081101561042d57600080fd5b8101908080359060200190929190505050610fa3565b005b34801561045157600080fd5b5061045a6111bf565b6040518082815260200191505060405180910390f35b60008060009054906101000a900473ffffffffffffffffffffffffffffffffffffffff1673ffffffffffffffffffffffffffffffffffffffff163373ffffffffffffffffffffffffffffffffffffffff16146104cb57600080fd5b8660026000600154815260200190815260200160002060000190805190602001906104f79291906111c5565b508560026000600154815260200190815260200160002060060160006101000a81548173ffffffffffffffffffffffffffffffffffffffff021916908373ffffffffffffffffffffffffffffffffffffffff160217905550846002600060015481526020019081526020016000206001018190555083600260006001548152602001908152602001600020600501819055508260026000600154815260200190815260200160002060070160006101000a81548173ffffffffffffffffffffffffffffffffffffffff021916908373ffffffffffffffffffffffffffffffffffffffff16021790555081600260006001548152602001908152602001600020600801819055506001600260006001548152602001908152602001600020600a0160016101000a81548160ff0219169083151502179055506001600260006001548152602001908152602001600020600a0160006101000a81548160ff0219169083600281111561066357fe5b02179055507f6eb7b831f9a6a163101e8adfd07b9c9059c44be14713417d8c7470567703d74887878686868a60015460405180806020018873ffffffffffffffffffffffffffffffffffffffff1673ffffffffffffffffffffffffffffffffffffffff1681526020018781526020018673ffffffffffffffffffffffffffffffffffffffff1673ffffffffffffffffffffffffffffffffffffffff168152602001858152602001848152602001838152602001828103825289818151815260200191508051906020019080838360005b8381101561074e578082015181840152602081019050610733565b50505050905090810190601f16801561077b5780820380516001836020036101000a031916815260200191505b509850505050505050505060405180910390a160018060008282540192505081905550600180540390509695505050505050565b6000809054906101000a900473ffffffffffffffffffffffffffffffffffffffff1673ffffffffffffffffffffffffffffffffffffffff163373ffffffffffffffffffffffffffffffffffffffff161461080857600080fd5b6001600281111561081557fe5b60026000848152602001908152602001600020600a0160009054906101000a900460ff16600281111561084457fe5b1461084e57600080fd5b600081600260008581526020019081526020016000206003015460026000868152602001908152602001600020600201540303101561088c57600080fd5b8060026000848152602001908152602001600020600301600082825401925050819055507fd407f7195c15041f1e5ea0752481fc052aee8b147ed7d96dfc12880f512f48258282604051808381526020018281526020019250505060405180910390a15050565b60006002600083815260200190815260200160002060090160003373ffffffffffffffffffffffffffffffffffffffff1673ffffffffffffffffffffffffffffffffffffffff168152602001908152602001600020549050919050565b606060008060008060008060026000898152602001908152602001600020600001600260008a815260200190815260200160002060010154600260008b815260200190815260200160002060020154600260008c815260200190815260200160002060030154600260008d815260200190815260200160002060070160009054906101000a900473ffffffffffffffffffffffffffffffffffffffff16600260008e815260200190815260200160002060080154600260008f8152602001908152602001600020600a0160019054906101000a900460ff16868054600181600116156101000203166002900480601f016020809104026020016040519081016040528092919081815260200182805460018160011615610100020316600290048015610abd5780601f10610a9257610100808354040283529160200191610abd565b820191906000526020600020905b815481529060010190602001808311610aa057829003601f168201915b505050505096508292509650965096509650965096509650919395979092949650565b6001151560026000848152602001908152602001600020600a0160019054906101000a900460ff16151514610b1457600080fd5b60026000838152602001908152602001600020600501548102341015610b3957600080fd5b8060026000848152602001908152602001600020600201546002600085815260200190815260200160002060010154031015610b7457600080fd5b806002600084815260200190815260200160002060090160003373ffffffffffffffffffffffffffffffffffffffff1673ffffffffffffffffffffffffffffffffffffffff168152602001908152602001600020600082825401925050819055508060026000848152602001908152602001600020600201600082825401925050819055506000600260008481526020019081526020016000206005015482029050600081340390503373ffffffffffffffffffffffffffffffffffffffff166108fc829081150290604051600060405180830381858888f19350505050158015610c63573d6000803e3d6000fd5b507f56d51a0b6649d6edcadbf20dd99bbfa2b2fa5de27a84355fd1efa274f270a76e33858534604051808573ffffffffffffffffffffffffffffffffffffffff1673ffffffffffffffffffffffffffffffffffffffff16815260200184815260200183815260200182815260200194505050505060405180910390a150505050565b6000809054906101000a900473ffffffffffffffffffffffffffffffffffffffff1681565b600280811115610d1657fe5b60026000838152602001908152602001600020600a0160009054906101000a900460ff166002811115610d4557fe5b14610d4f57600080fd5b60006002600083815260200190815260200160002060090160003373ffffffffffffffffffffffffffffffffffffffff1673ffffffffffffffffffffffffffffffffffffffff16815260200190815260200160002054905060008111610db457600080fd5b60006002600084815260200190815260200160002060040154600260008581526020019081526020016000206003015460026000868152602001908152602001600020600101540303905060008111610e0c57600080fd5b600081831115610e1e57819050610e22565b8290505b806002600086815260200190815260200160002060020160008282540392505081905550806002600086815260200190815260200160002060090160003373ffffffffffffffffffffffffffffffffffffffff1673ffffffffffffffffffffffffffffffffffffffff168152602001908152602001600020600082825403925050819055508060026000868152602001908152602001600020600401600082825401925050819055503373ffffffffffffffffffffffffffffffffffffffff166108fc600260008781526020019081526020016000206005015483029081150290604051600060405180830381858888f19350505050158015610f29573d6000803e3d6000fd5b507fbd8406848631cb6df1fd3226f67adb666f70a93318502798ba848be738d2b848338583604051808473ffffffffffffffffffffffffffffffffffffffff1673ffffffffffffffffffffffffffffffffffffffff168152602001838152602001828152602001935050505060405180910390a150505050565b6000809054906101000a900473ffffffffffffffffffffffffffffffffffffffff1673ffffffffffffffffffffffffffffffffffffffff163373ffffffffffffffffffffffffffffffffffffffff1614610ffc57600080fd5b600060026000838152602001908152602001600020600a0160016101000a81548160ff0219169083151502179055506002806000838152602001908152602001600020600a0160006101000a81548160ff0219169083600281111561105d57fe5b02179055506000600260008381526020019081526020016000206005015460026000848152602001908152602001600020600301540290506002600083815260200190815260200160002060070160009054906101000a900473ffffffffffffffffffffffffffffffffffffffff1673ffffffffffffffffffffffffffffffffffffffff166108fc829081150290604051600060405180830381858888f19350505050158015611111573d6000803e3d6000fd5b507fec1715928c04d2a37117b8a85ca08e81a415a8d31fbccdb8500786c0b20b271a6002600084815260200190815260200160002060070160009054906101000a900473ffffffffffffffffffffffffffffffffffffffff168284604051808473ffffffffffffffffffffffffffffffffffffffff1673ffffffffffffffffffffffffffffffffffffffff168152602001838152602001828152602001935050505060405180910390a15050565b60015481565b828054600181600116156101000203166002900490600052602060002090601f016020900481019282601f1061120657805160ff1916838001178555611234565b82800160010185558215611234579182015b82811115611233578251825591602001919060010190611218565b5b5090506112419190611245565b5090565b61126791905b8082111561126357600081600090555060010161124b565b5090565b9056fea165627a7a7230582062e10ede6e95f665a253d4a4a3e2392b1954ddc443c3e09d5cd732903c3b28df0029",
  "source": "pragma solidity ^0.5.0;\r\n\r\n    /*\r\n        The Charities contract keeps track of the charities.\r\n     */\r\ncontract Charities {\r\n\r\n    /*\r\n      Public owner variable which is set to the creator of the contract when it is initialized.\r\n    */\r\n    address public owner ;\r\n\r\n    /*\r\n      A charity has 5 states:\r\n      Pending = during creation ()\r\n      Active = after a charity is added\r\n      Finished = if the some of the donations cannot be consumed we can refund the donation.\r\n    */\r\n    enum CharityStatus  {Pending, Active, Finished}\r\n\r\n    /*\r\n        The variable to keep track of the charity ID numbers.\r\n    */\r\n    uint public idGenerator;\r\n\r\n    /*\r\n        Charity struct, which has 10 fields.\r\n        The \"patron\" is the NGO which is observing the charity.\r\n        The \"serviceProvider\" is the beneficiary serving the charityItems.\r\n        The \"closingBlock\" defines the end of donations accepted (not implemented yet)\r\n        The \"donators\" keeps track of addresses and how many of the open donations each donator has purchased.\r\n    */\r\n    struct Charity {\r\n        string description;\r\n        uint totalDonations;\r\n        uint soldDonations;\r\n        uint consumedDonations;\r\n        uint refundedDonations;\r\n        uint price;\r\n        address patron;\r\n        address payable serviceProvider;\r\n        uint closingBlock;\r\n        mapping (address => uint) donators;\r\n        CharityStatus status;\r\n        bool isOpen;\r\n    }\r\n\r\n    /*\r\n        This mapping keeps track of all charities.\r\n    */\r\n    mapping (uint => Charity) charities;\r\n\r\n    event LogCharityAdded(string desc, address patron, uint price, address serviceProvider, uint closingBlock, uint totalDonationsAvailable, uint charityId);\r\n    event LogCharityDonated(address donator, uint charityId, uint donations, uint msgvalue);\r\n    event LogCharityRefunded(address accountRefunded, uint eventId, uint donations);\r\n    event LogEndCharity(address serviceProvider, uint balance, uint eventId);\r\n    event LogDonationConsumed(uint charityId, uint donations);\r\n\r\n\r\n    constructor() public {\r\n        owner= msg.sender;\r\n    }\r\n\r\n    /*\r\n        A modifier that throws an error if the msg.sender is not the owner.\r\n    */\r\n    modifier isMsgSenderOwner() {\r\n      require(msg.sender == owner);\r\n      _;\r\n    }\r\n\r\n    /*\r\n\r\n        Adds a new charity to the contract.\r\n    */\r\n    function addCharity(string memory _description, address _patron, uint _totalDonations, uint _price, address payable _serviceProvider, uint _closingBlock) public payable isMsgSenderOwner() returns (uint charityID)  {\r\n      charities[idGenerator].description = _description;\r\n      charities[idGenerator].patron = _patron;\r\n      charities[idGenerator].totalDonations = _totalDonations;\r\n      charities[idGenerator].price = _price;\r\n      charities[idGenerator].serviceProvider = _serviceProvider;\r\n      charities[idGenerator].closingBlock = _closingBlock;\r\n      charities[idGenerator].isOpen = true;\r\n      charities[idGenerator].status = CharityStatus.Active;\r\n      emit LogCharityAdded(_description, _patron, _price, _serviceProvider, _closingBlock, _totalDonations, idGenerator);\r\n      idGenerator +=1;\r\n\r\n      return idGenerator-1;\r\n\r\n    }\r\n\r\n    /*\r\n      Returns a charity with the given charityID.\r\n    */\r\n    function readCharity(uint charityID) public view\r\n        returns(string memory description, uint totalDonations, uint soldDonations, uint consumedDonations, address serviceProvider, uint closingBlock, bool isOpen) {\r\n            return(charities[charityID].description, charities[charityID].totalDonations, charities[charityID].soldDonations, charities[charityID].consumedDonations , charities[charityID].serviceProvider, charities[charityID].closingBlock, charities[charityID].isOpen);\r\n\r\n    }   \r\n\r\n\r\n    /*\r\n\r\n        This function allows users to donate to a specific charity with given id.\r\n        This function takes 2 parameters, an charity ID and a number of donations.\r\n\r\n    */\r\n    function donateToCharity(uint charityID, uint nrOfDonations) public payable {\r\n        require(charities[charityID].isOpen == true);\r\n        require(msg.value >= nrOfDonations* charities[charityID].price );\r\n        require(charities[charityID].totalDonations-charities[charityID].soldDonations >= nrOfDonations);\r\n        charities[charityID].donators[msg.sender]+=nrOfDonations;\r\n        charities[charityID].soldDonations += nrOfDonations;\r\n        uint totalPrice = nrOfDonations * charities[charityID].price;\r\n        uint change = msg.value - totalPrice;\r\n        msg.sender.transfer(change);\r\n        emit LogCharityDonated(msg.sender, charityID, nrOfDonations, msg.value);\r\n    }\r\n\r\n    /*\r\n\r\n        This function allows users to request a refund for a specific charity.\r\n        It is checked if there are refunds available.\r\n        This function takes one parameter, the event ID.\r\n\r\n    */\r\n    function getRefund(uint charityID) public payable {\r\n        require(charities[charityID].status == CharityStatus.Finished);\r\n        uint senderRefundableDonations= charities[charityID].donators[msg.sender];\r\n        require(senderRefundableDonations > 0);\r\n        uint totalRefundableDonations = charities[charityID].totalDonations - charities[charityID].consumedDonations - charities[charityID].refundedDonations ;\r\n        require(totalRefundableDonations > 0);\r\n        uint calculatedRefundableDonations;\r\n        if(senderRefundableDonations> totalRefundableDonations) {\r\n          calculatedRefundableDonations = totalRefundableDonations;\r\n        } else {\r\n          calculatedRefundableDonations = senderRefundableDonations;\r\n        }\r\n\r\n        charities[charityID].soldDonations-=calculatedRefundableDonations;\r\n        charities[charityID].donators[msg.sender]-=calculatedRefundableDonations;\r\n        charities[charityID].refundedDonations+=calculatedRefundableDonations;\r\n        msg.sender.transfer(calculatedRefundableDonations * charities[charityID].price);\r\n        emit LogCharityRefunded(msg.sender, charityID, calculatedRefundableDonations);\r\n    }\r\n\r\n    /*\r\n        This function takes one parameter, a charity ID\r\n        This function returns a uint, the number of donations that the msg.sender has purchased.\r\n    */\r\n    function getDonationNumberForDonator(uint charityID) public view\r\n        returns(uint donatedCharities) {\r\n\r\n            return (charities[charityID].donators[msg.sender]);\r\n    }\r\n\r\n    /*\r\n      Represents a confirmation of a consumation.\r\n      It takes a charity ID and a number of donations as parameters.\r\n      Only the contract owner can call this function.\r\n    */\r\n    function consumeDonation(uint charityID, uint donations) public isMsgSenderOwner {\r\n      require(charities[charityID].status == CharityStatus.Active);\r\n      require(charities[charityID].soldDonations - charities[charityID].consumedDonations - donations >= 0);\r\n      charities[charityID].consumedDonations+= donations;\r\n      emit LogDonationConsumed(charityID, donations);\r\n    }\r\n\r\n    /*\r\n\r\n        This function takes one parameter, the charity ID\r\n        Only the contract owner can call this function\r\n\r\n    */\r\n    function closeCharity(uint charityID) public payable isMsgSenderOwner {\r\n        charities[charityID].isOpen = false;\r\n        charities[charityID].status = CharityStatus.Finished;\r\n\r\n        uint balance = (charities[charityID].consumedDonations * charities[charityID].price);\r\n        charities[charityID].serviceProvider.transfer(balance);\r\n        emit LogEndCharity(charities[charityID].serviceProvider, balance, charityID);\r\n    }\r\n\r\n\r\n}\r\n",
  "sourcePath": "C:/Users/sbr/Desktop/consensys/final-project-developer-bootcamp-2019-2/contracts/Charities.sol",
  "compiler": {
    "name": "solc",
    "version": "0.5.8+commit.23d335f2.Emscripten.clang"
  },
  "schemaVersion": "3.0.11",
  "updatedAt": "2019-07-30T19:50:23.706Z",
  "devdoc": {
    "methods": {}
  },
  "userdoc": {
    "methods": {}
  }
}